{
    "_format": "hh-sol-artifact-1",
    "contractName": "Tribes",
    "sourceName": "contracts/Tribes.sol",
    "abi": [
        {
            "inputs": [],
            "stateMutability": "nonpayable",
            "type": "constructor"
        },
        {
            "anonymous": false,
            "inputs": [
                {
                    "indexed": false,
                    "internalType": "uint256",
                    "name": "tribeId",
                    "type": "uint256"
                },
                {
                    "indexed": false,
                    "internalType": "address",
                    "name": "newMember",
                    "type": "address"
                }
            ],
            "name": "JoinedTribe",
            "type": "event"
        },
        {
            "anonymous": false,
            "inputs": [
                {
                    "indexed": false,
                    "internalType": "uint256",
                    "name": "tribeId",
                    "type": "uint256"
                },
                {
                    "indexed": false,
                    "internalType": "address",
                    "name": "member",
                    "type": "address"
                }
            ],
            "name": "LeftTribe",
            "type": "event"
        },
        {
            "anonymous": false,
            "inputs": [
                {
                    "indexed": false,
                    "internalType": "address",
                    "name": "tenant",
                    "type": "address"
                }
            ],
            "name": "NewTenantInstance",
            "type": "event"
        },
        {
            "anonymous": false,
            "inputs": [
                {
                    "indexed": false,
                    "internalType": "string",
                    "name": "metadata",
                    "type": "string"
                }
            ],
            "name": "NewTribeCreated",
            "type": "event"
        },
        {
            "inputs": [
                {
                    "internalType": "string",
                    "name": "metadata",
                    "type": "string"
                }
            ],
            "name": "addNewTribe",
            "outputs": [],
            "stateMutability": "nonpayable",
            "type": "function"
        },
        {
            "inputs": [],
            "name": "createInstance",
            "outputs": [],
            "stateMutability": "nonpayable",
            "type": "function"
        },
        {
            "inputs": [],
            "name": "getTenantTotal",
            "outputs": [
                {
                    "internalType": "uint256",
                    "name": "",
                    "type": "uint256"
                }
            ],
            "stateMutability": "view",
            "type": "function"
        },
        {
            "inputs": [
                {
                    "internalType": "address",
                    "name": "tenant",
                    "type": "address"
                },
                {
                    "internalType": "uint256",
                    "name": "tribeId",
                    "type": "uint256"
                }
            ],
            "name": "getTribeData",
            "outputs": [
                {
                    "internalType": "string",
                    "name": "",
                    "type": "string"
                }
            ],
            "stateMutability": "view",
            "type": "function"
        },
        {
            "inputs": [
                {
                    "internalType": "address",
                    "name": "tenant",
                    "type": "address"
                },
                {
                    "internalType": "address",
                    "name": "user",
                    "type": "address"
                }
            ],
            "name": "getUserTribe",
            "outputs": [
                {
                    "internalType": "uint256",
                    "name": "",
                    "type": "uint256"
                }
            ],
            "stateMutability": "view",
            "type": "function"
        },
        {
            "inputs": [
                {
                    "internalType": "address",
                    "name": "",
                    "type": "address"
                }
            ],
            "name": "instance",
            "outputs": [
                {
                    "internalType": "bool",
                    "name": "",
                    "type": "bool"
                }
            ],
            "stateMutability": "view",
            "type": "function"
        },
        {
            "inputs": [
                {
                    "internalType": "address",
                    "name": "tenant",
                    "type": "address"
                },
                {
                    "internalType": "uint256",
                    "name": "tribeId",
                    "type": "uint256"
                }
            ],
            "name": "joinTribe",
            "outputs": [],
            "stateMutability": "nonpayable",
            "type": "function"
        },
        {
            "inputs": [
                {
                    "internalType": "address",
                    "name": "tenant",
                    "type": "address"
                }
            ],
            "name": "leaveTribe",
            "outputs": [],
            "stateMutability": "nonpayable",
            "type": "function"
        },
        {
            "inputs": [],
            "name": "metadata",
            "outputs": [
                {
                    "internalType": "bytes",
                    "name": "title",
                    "type": "bytes"
                },
                {
                    "components": [
                        {
                            "internalType": "address",
                            "name": "authorAddress",
                            "type": "address"
                        },
                        {
                            "internalType": "string",
                            "name": "externalLink",
                            "type": "string"
                        }
                    ],
                    "internalType": "struct IHyperverseModule.Author",
                    "name": "author",
                    "type": "tuple"
                },
                {
                    "internalType": "bytes",
                    "name": "version",
                    "type": "bytes"
                },
                {
                    "internalType": "uint64",
                    "name": "publishedAt",
                    "type": "uint64"
                },
                {
                    "internalType": "bytes",
                    "name": "externalLink",
                    "type": "bytes"
                }
            ],
            "stateMutability": "view",
            "type": "function"
        },
        {
            "inputs": [],
            "name": "owner",
            "outputs": [
                {
                    "internalType": "address",
                    "name": "",
                    "type": "address"
                }
            ],
            "stateMutability": "view",
            "type": "function"
        },
        {
            "inputs": [],
            "name": "tenantCount",
            "outputs": [
                {
                    "internalType": "uint256",
                    "name": "_value",
                    "type": "uint256"
                }
            ],
            "stateMutability": "view",
            "type": "function"
        },
        {
            "inputs": [
                {
                    "internalType": "address",
                    "name": "",
                    "type": "address"
                }
            ],
            "name": "tenants",
            "outputs": [
                {
                    "components": [
                        {
                            "internalType": "uint256",
                            "name": "_value",
                            "type": "uint256"
                        }
                    ],
                    "internalType": "struct Counters.Counter",
                    "name": "tribeIds",
                    "type": "tuple"
                }
            ],
            "stateMutability": "view",
            "type": "function"
        },
        {
            "inputs": [
                {
                    "internalType": "address",
                    "name": "tenant",
                    "type": "address"
                }
            ],
            "name": "totalTribes",
            "outputs": [
                {
                    "internalType": "uint256",
                    "name": "",
                    "type": "uint256"
                }
            ],
            "stateMutability": "view",
            "type": "function"
        }
    ],
    "bytecode": "0x60806040523480156200001157600080fd5b506040518060a001604052806040518060400160405280600681526020017f5472696265730000000000000000000000000000000000000000000000000000815250815260200160405180604001604052803373ffffffffffffffffffffffffffffffffffffffff1681526020016040518060400160405280601881526020017f68747470733a2f2f65787465726e616c6c696e6b2e6e6574000000000000000081525081525081526020016040518060400160405280600581526020017f302e302e31000000000000000000000000000000000000000000000000000000815250815260200165032a361e860667ffffffffffffffff1681526020016040518060400160405280601881526020017f68747470733a2f2f65787465726e616c4c696e6b2e6e65740000000000000000815250815250600080820151816000019080519060200190620001669291906200028f565b5060208201518160010160008201518160000160006101000a81548173ffffffffffffffffffffffffffffffffffffffff021916908373ffffffffffffffffffffffffffffffffffffffff1602179055506020820151816001019080519060200190620001d592919062000320565b5050506040820151816003019080519060200190620001f69291906200028f565b5060608201518160040160006101000a81548167ffffffffffffffff021916908367ffffffffffffffff1602179055506080820151816005019080519060200190620002449291906200028f565b5090505033600760006101000a81548173ffffffffffffffffffffffffffffffffffffffff021916908373ffffffffffffffffffffffffffffffffffffffff16021790555062000435565b8280546200029d90620003d0565b90600052602060002090601f016020900481019282620002c157600085556200030d565b82601f10620002dc57805160ff19168380011785556200030d565b828001600101855582156200030d579182015b828111156200030c578251825591602001919060010190620002ef565b5b5090506200031c9190620003b1565b5090565b8280546200032e90620003d0565b90600052602060002090601f0160209004810192826200035257600085556200039e565b82601f106200036d57805160ff19168380011785556200039e565b828001600101855582156200039e579182015b828111156200039d57825182559160200191906001019062000380565b5b509050620003ad9190620003b1565b5090565b5b80821115620003cc576000816000905550600101620003b2565b5090565b60006002820490506001821680620003e957607f821691505b602082108114156200040057620003ff62000406565b5b50919050565b7f4e487b7100000000000000000000000000000000000000000000000000000000600052602260045260246000fd5b61195c80620004456000396000f3fe608060405234801561001057600080fd5b50600436106100cf5760003560e01c80636d019c921161008c578063ad50146711610066578063ad50146714610204578063be51f4f81461020e578063cf33d5881461023e578063fd9153a31461026e576100cf565b80636d019c921461019a5780638da5cb5b146101b6578063aae9f259146101d4576100cf565b80631307430a146100d457806316d24710146100f25780633269c74e1461010e57806333d03bcc1461012a578063392f37e91461015a5780636156faf91461017c575b600080fd5b6100dc61029e565b6040516100e9919061151f565b60405180910390f35b61010c60048036038101906101079190611113565b6102aa565b005b610128600480360381019061012391906110ae565b6104a3565b005b610144600480360381019061013f91906110ae565b6106d7565b604051610151919061151f565b60405180910390f35b6101626106f4565b6040516101739594939291906113d3565b60405180910390f35b6101846109b6565b604051610191919061151f565b60405180910390f35b6101b460048036038101906101af919061114f565b6109c7565b005b6101be610af6565b6040516101cb919061139d565b60405180910390f35b6101ee60048036038101906101e991906110d7565b610b1c565b6040516101fb919061151f565b60405180910390f35b61020c610c00565b005b61022860048036038101906102239190611113565b610d6e565b6040516102359190611442565b60405180910390f35b610258600480360381019061025391906110ae565b610e2d565b60405161026591906113b8565b60405180910390f35b610288600480360381019061028391906110ae565b610e4d565b6040516102959190611504565b60405180910390f35b60088060000154905081565b600033905060006102ba84610e7f565b905060008160010160008473ffffffffffffffffffffffffffffffffffffffff1673ffffffffffffffffffffffffffffffffffffffff1681526020019081526020016000205414610340576040517f08c379a0000000000000000000000000000000000000000000000000000000008152600401610337906114c4565b60405180910390fd5b8261034d82600201610f55565b101561038e576040517f08c379a0000000000000000000000000000000000000000000000000000000008152600401610385906114e4565b60405180910390fd5b828160010160008473ffffffffffffffffffffffffffffffffffffffff1673ffffffffffffffffffffffffffffffffffffffff168152602001908152602001600020819055506000816000016000858152602001908152602001600020905060018160010160008573ffffffffffffffffffffffffffffffffffffffff1673ffffffffffffffffffffffffffffffffffffffff16815260200190815260200160002060006101000a81548160ff021916908315150217905550600181600201600082825461045c9190611602565b925050819055507f8e0fdde8512c413931ab05e9ae74b54525259ce920b11c355705e510829841db848460405161049492919061153a565b60405180910390a15050505050565b600033905060006104b383610e7f565b905060008160010160008473ffffffffffffffffffffffffffffffffffffffff1673ffffffffffffffffffffffffffffffffffffffff16815260200190815260200160002054141561053a576040517f08c379a000000000000000000000000000000000000000000000000000000000815260040161053190611464565b60405180910390fd5b60008160000160008360010160008673ffffffffffffffffffffffffffffffffffffffff1673ffffffffffffffffffffffffffffffffffffffff168152602001908152602001600020548152602001908152602001600020905060008260010160008573ffffffffffffffffffffffffffffffffffffffff1673ffffffffffffffffffffffffffffffffffffffff16815260200190815260200160002054905060008360010160008673ffffffffffffffffffffffffffffffffffffffff1673ffffffffffffffffffffffffffffffffffffffff1681526020019081526020016000208190555060008260010160008673ffffffffffffffffffffffffffffffffffffffff1673ffffffffffffffffffffffffffffffffffffffff16815260200190815260200160002060006101000a81548160ff02191690831515021790555060018260020160008282546106909190611658565b925050819055507fbeae83c5a8a13a5d2a71926ba1055d7a1d9de899e96f7244654799627236644d81856040516106c892919061153a565b60405180910390a15050505050565b60006106ed6106e583610e7f565b600201610f55565b9050919050565b60008060000180546107059061172a565b80601f01602080910402602001604051908101604052809291908181526020018280546107319061172a565b801561077e5780601f106107535761010080835404028352916020019161077e565b820191906000526020600020905b81548152906001019060200180831161076157829003601f168201915b505050505090806001016040518060400160405290816000820160009054906101000a900473ffffffffffffffffffffffffffffffffffffffff1673ffffffffffffffffffffffffffffffffffffffff1673ffffffffffffffffffffffffffffffffffffffff1681526020016001820180546107f99061172a565b80601f01602080910402602001604051908101604052809291908181526020018280546108259061172a565b80156108725780601f1061084757610100808354040283529160200191610872565b820191906000526020600020905b81548152906001019060200180831161085557829003601f168201915b5050505050815250509080600301805461088b9061172a565b80601f01602080910402602001604051908101604052809291908181526020018280546108b79061172a565b80156109045780601f106108d957610100808354040283529160200191610904565b820191906000526020600020905b8154815290600101906020018083116108e757829003601f168201915b5050505050908060040160009054906101000a900467ffffffffffffffff16908060050180546109339061172a565b80601f016020809104026020016040519081016040528092919081815260200182805461095f9061172a565b80156109ac5780601f10610981576101008083540402835291602001916109ac565b820191906000526020600020905b81548152906001019060200180831161098f57829003601f168201915b5050505050905085565b60006109c26008610f55565b905090565b33600a60008273ffffffffffffffffffffffffffffffffffffffff1673ffffffffffffffffffffffffffffffffffffffff16815260200190815260200160002060009054906101000a900460ff16610a54576040517f08c379a0000000000000000000000000000000000000000000000000000000008152600401610a4b90611484565b60405180910390fd5b6000610a5f33610e7f565b9050610a6d81600201610f63565b6000610a7b82600201610f55565b90506000826000016000838152602001908152602001600020905084816000019080519060200190610aae929190610f79565b508181600301819055507f2d06fe5eff482a0b08e70bd38f111a1a397e6952391bdc714df3eacb735b354c85604051610ae79190611442565b60405180910390a15050505050565b600760009054906101000a900473ffffffffffffffffffffffffffffffffffffffff1681565b600080610b2884610e7f565b905060008160010160008573ffffffffffffffffffffffffffffffffffffffff1673ffffffffffffffffffffffffffffffffffffffff168152602001908152602001600020541415610baf576040517f08c379a0000000000000000000000000000000000000000000000000000000008152600401610ba690611464565b60405180910390fd5b60008160010160008573ffffffffffffffffffffffffffffffffffffffff1673ffffffffffffffffffffffffffffffffffffffff168152602001908152602001600020549050809250505092915050565b60001515600a60003373ffffffffffffffffffffffffffffffffffffffff1673ffffffffffffffffffffffffffffffffffffffff16815260200190815260200160002060009054906101000a900460ff16151514610c93576040517f08c379a0000000000000000000000000000000000000000000000000000000008152600401610c8a906114a4565b60405180910390fd5b600960003373ffffffffffffffffffffffffffffffffffffffff1673ffffffffffffffffffffffffffffffffffffffff168152602001908152602001600020506001600a60003373ffffffffffffffffffffffffffffffffffffffff1673ffffffffffffffffffffffffffffffffffffffff16815260200190815260200160002060006101000a81548160ff021916908315150217905550610d356008610f63565b7fa7c4d74046e6121f6c1f91b52d5af6460c49a30ba0cb5920a2dd4434af77933a33604051610d64919061139d565b60405180910390a1565b60606000610d7b84610e7f565b905060008160000160008581526020019081526020016000209050806000018054610da59061172a565b80601f0160208091040260200160405190810160405280929190818152602001828054610dd19061172a565b8015610e1e5780601f10610df357610100808354040283529160200191610e1e565b820191906000526020600020905b815481529060010190602001808311610e0157829003601f168201915b50505050509250505092915050565b600a6020528060005260406000206000915054906101000a900460ff1681565b600960205280600052604060002060009150905080600201604051806020016040529081600082015481525050905081565b600081600a60008273ffffffffffffffffffffffffffffffffffffffff1673ffffffffffffffffffffffffffffffffffffffff16815260200190815260200160002060009054906101000a900460ff16610f0e576040517f08c379a0000000000000000000000000000000000000000000000000000000008152600401610f0590611484565b60405180910390fd5b600960008473ffffffffffffffffffffffffffffffffffffffff1673ffffffffffffffffffffffffffffffffffffffff168152602001908152602001600020915050919050565b600081600001549050919050565b6001816000016000828254019250508190555050565b828054610f859061172a565b90600052602060002090601f016020900481019282610fa75760008555610fee565b82601f10610fc057805160ff1916838001178555610fee565b82800160010185558215610fee579182015b82811115610fed578251825591602001919060010190610fd2565b5b509050610ffb9190610fff565b5090565b5b80821115611018576000816000905550600101611000565b5090565b600061102f61102a84611588565b611563565b90508281526020810184848401111561104757600080fd5b6110528482856116e8565b509392505050565b600081359050611069816118f8565b92915050565b600082601f83011261108057600080fd5b813561109084826020860161101c565b91505092915050565b6000813590506110a88161190f565b92915050565b6000602082840312156110c057600080fd5b60006110ce8482850161105a565b91505092915050565b600080604083850312156110ea57600080fd5b60006110f88582860161105a565b92505060206111098582860161105a565b9150509250929050565b6000806040838503121561112657600080fd5b60006111348582860161105a565b925050602061114585828601611099565b9150509250929050565b60006020828403121561116157600080fd5b600082013567ffffffffffffffff81111561117b57600080fd5b6111878482850161106f565b91505092915050565b6111998161168c565b82525050565b6111a88161168c565b82525050565b6111b78161169e565b82525050565b60006111c8826115b9565b6111d281856115cf565b93506111e28185602086016116f7565b6111eb8161181a565b840191505092915050565b6000611201826115c4565b61120b81856115e0565b935061121b8185602086016116f7565b6112248161181a565b840191505092915050565b600061123a826115c4565b61124481856115f1565b93506112548185602086016116f7565b61125d8161181a565b840191505092915050565b6000611275601e836115f1565b91506112808261182b565b602082019050919050565b60006112986020836115f1565b91506112a382611854565b602082019050919050565b60006112bb601c836115f1565b91506112c68261187d565b602082019050919050565b60006112de601b836115f1565b91506112e9826118a6565b602082019050919050565b60006113016014836115f1565b915061130c826118cf565b602082019050919050565b600060408301600083015161132f6000860182611190565b506020830151848203602086015261134782826111f6565b9150508091505092915050565b60208201600082015161136a6000850182611370565b50505050565b611379816116ca565b82525050565b611388816116ca565b82525050565b611397816116d4565b82525050565b60006020820190506113b2600083018461119f565b92915050565b60006020820190506113cd60008301846111ae565b92915050565b600060a08201905081810360008301526113ed81886111bd565b905081810360208301526114018187611317565b9050818103604083015261141581866111bd565b9050611424606083018561138e565b818103608083015261143681846111bd565b90509695505050505050565b6000602082019050818103600083015261145c818461122f565b905092915050565b6000602082019050818103600083015261147d81611268565b9050919050565b6000602082019050818103600083015261149d8161128b565b9050919050565b600060208201905081810360008301526114bd816112ae565b9050919050565b600060208201905081810360008301526114dd816112d1565b9050919050565b600060208201905081810360008301526114fd816112f4565b9050919050565b60006020820190506115196000830184611354565b92915050565b6000602082019050611534600083018461137f565b92915050565b600060408201905061154f600083018561137f565b61155c602083018461119f565b9392505050565b600061156d61157e565b9050611579828261175c565b919050565b6000604051905090565b600067ffffffffffffffff8211156115a3576115a26117eb565b5b6115ac8261181a565b9050602081019050919050565b600081519050919050565b600081519050919050565b600082825260208201905092915050565b600082825260208201905092915050565b600082825260208201905092915050565b600061160d826116ca565b9150611618836116ca565b9250827fffffffffffffffffffffffffffffffffffffffffffffffffffffffffffffffff0382111561164d5761164c61178d565b5b828201905092915050565b6000611663826116ca565b915061166e836116ca565b9250828210156116815761168061178d565b5b828203905092915050565b6000611697826116aa565b9050919050565b60008115159050919050565b600073ffffffffffffffffffffffffffffffffffffffff82169050919050565b6000819050919050565b600067ffffffffffffffff82169050919050565b82818337600083830152505050565b60005b838110156117155780820151818401526020810190506116fa565b83811115611724576000848401525b50505050565b6000600282049050600182168061174257607f821691505b60208210811415611756576117556117bc565b5b50919050565b6117658261181a565b810181811067ffffffffffffffff82111715611784576117836117eb565b5b80604052505050565b7f4e487b7100000000000000000000000000000000000000000000000000000000600052601160045260246000fd5b7f4e487b7100000000000000000000000000000000000000000000000000000000600052602260045260246000fd5b7f4e487b7100000000000000000000000000000000000000000000000000000000600052604160045260246000fd5b6000601f19601f8301169050919050565b7f54686973206d656d626572206973206e6f7420696e2061205472696265210000600082015250565b7f54656e616e7420646f6573206e6f74206861766520616e20696e7374616e6365600082015250565b7f596f7520616c7265616479206861766520616e20696e7374616e636500000000600082015250565b7f5573657220697320616c726561647920696e2061205472696265210000000000600082015250565b7f547269626520646f6573206e6f74206578697374000000000000000000000000600082015250565b6119018161168c565b811461190c57600080fd5b50565b611918816116ca565b811461192357600080fd5b5056fea2646970667358221220918a630150c71d9940ac293c83e653d3b00204feb8205c10cdc68d0cca7746c464736f6c63430008040033",
    "linkReferences": {},
    "deployedLinkReferences": {}
}