{
  "_format": "hh-sol-artifact-1",
  "contractName": "Tribes",
  "sourceName": "contracts/Tribes.sol",
  "abi": [
    {
      "inputs": [],
      "stateMutability": "nonpayable",
      "type": "constructor"
    },
    {
      "anonymous": false,
      "inputs": [
        {
          "indexed": false,
          "internalType": "uint256",
          "name": "tribeId",
          "type": "uint256"
        },
        {
          "indexed": false,
          "internalType": "address",
          "name": "newMember",
          "type": "address"
        }
      ],
      "name": "JoinedTribe",
      "type": "event"
    },
    {
      "anonymous": false,
      "inputs": [
        {
          "indexed": false,
          "internalType": "uint256",
          "name": "tribeId",
          "type": "uint256"
        },
        {
          "indexed": false,
          "internalType": "address",
          "name": "member",
          "type": "address"
        }
      ],
      "name": "LeftTribe",
      "type": "event"
    },
    {
      "anonymous": false,
      "inputs": [
        {
          "indexed": false,
          "internalType": "string",
          "name": "metadata",
          "type": "string"
        }
      ],
      "name": "NewTribeCreated",
      "type": "event"
    },
    {
      "inputs": [
        {
          "internalType": "string",
          "name": "metadata",
          "type": "string"
        }
      ],
      "name": "addNewTribe",
      "outputs": [],
      "stateMutability": "nonpayable",
      "type": "function"
    },
    {
      "inputs": [],
      "name": "createInstance",
      "outputs": [],
      "stateMutability": "nonpayable",
      "type": "function"
    },
    {
      "inputs": [
        {
          "internalType": "address",
          "name": "tenant",
          "type": "address"
        },
        {
          "internalType": "uint256",
          "name": "tribeId",
          "type": "uint256"
        }
      ],
      "name": "getTribeData",
      "outputs": [
        {
          "internalType": "string",
          "name": "",
          "type": "string"
        }
      ],
      "stateMutability": "view",
      "type": "function"
    },
    {
      "inputs": [
        {
          "internalType": "address",
          "name": "tenant",
          "type": "address"
        },
        {
          "internalType": "address",
          "name": "user",
          "type": "address"
        }
      ],
      "name": "getUserTribe",
      "outputs": [
        {
          "internalType": "uint256",
          "name": "",
          "type": "uint256"
        }
      ],
      "stateMutability": "view",
      "type": "function"
    },
    {
      "inputs": [
        {
          "internalType": "address",
          "name": "",
          "type": "address"
        }
      ],
      "name": "instance",
      "outputs": [
        {
          "internalType": "bool",
          "name": "",
          "type": "bool"
        }
      ],
      "stateMutability": "view",
      "type": "function"
    },
    {
      "inputs": [
        {
          "internalType": "address",
          "name": "tenant",
          "type": "address"
        },
        {
          "internalType": "uint256",
          "name": "tribeId",
          "type": "uint256"
        }
      ],
      "name": "joinTribe",
      "outputs": [],
      "stateMutability": "nonpayable",
      "type": "function"
    },
    {
      "inputs": [
        {
          "internalType": "address",
          "name": "tenant",
          "type": "address"
        }
      ],
      "name": "leaveTribe",
      "outputs": [],
      "stateMutability": "nonpayable",
      "type": "function"
    },
    {
      "inputs": [],
      "name": "metadata",
      "outputs": [
        {
          "internalType": "bytes",
          "name": "title",
          "type": "bytes"
        },
        {
          "components": [
            {
              "internalType": "address",
              "name": "authorAddress",
              "type": "address"
            },
            {
              "internalType": "string",
              "name": "externalLink",
              "type": "string"
            }
          ],
          "internalType": "struct IHyperverseModule.Author",
          "name": "author",
          "type": "tuple"
        },
        {
          "internalType": "bytes",
          "name": "version",
          "type": "bytes"
        },
        {
          "internalType": "uint64",
          "name": "publishedAt",
          "type": "uint64"
        },
        {
          "internalType": "bytes",
          "name": "externalLink",
          "type": "bytes"
        }
      ],
      "stateMutability": "view",
      "type": "function"
    },
    {
      "inputs": [
        {
          "internalType": "address",
          "name": "tenant",
          "type": "address"
        }
      ],
      "name": "totalTribes",
      "outputs": [
        {
          "internalType": "uint256",
          "name": "",
          "type": "uint256"
        }
      ],
      "stateMutability": "view",
      "type": "function"
    }
  ],
  "bytecode": "0x60806040523480156200001157600080fd5b506040518060a001604052806040518060400160405280600681526020017f547269626573000000000000000000000000000000000000000000000000000081525081526020016040518060400160405280735b38da6a701c568545dcfcb03fcb875f56beddc473ffffffffffffffffffffffffffffffffffffffff1681526020016040518060400160405280601881526020017f68747470733a2f2f65787465726e616c6c696e6b2e6e6574000000000000000081525081525081526020016040518060400160405280600581526020017f302e302e31000000000000000000000000000000000000000000000000000000815250815260200165032a361e860667ffffffffffffffff1681526020016040518060400160405280601881526020017f68747470733a2f2f65787465726e616c4c696e6b2e6e657400000000000000008152508152506000808201518160000190805190602001906200017a929190620002b7565b5060208201518160010160008201518160000160006101000a81548173ffffffffffffffffffffffffffffffffffffffff021916908373ffffffffffffffffffffffffffffffffffffffff1602179055506020820151816001019080519060200190620001e992919062000348565b50505060408201518160030190805190602001906200020a929190620002b7565b5060608201518160040160006101000a81548167ffffffffffffffff021916908367ffffffffffffffff160217905550608082015181600501908051906020019062000258929190620002b7565b50905050735b38da6a701c568545dcfcb03fcb875f56beddc4600760006101000a81548173ffffffffffffffffffffffffffffffffffffffff021916908373ffffffffffffffffffffffffffffffffffffffff1602179055506200045d565b828054620002c590620003f8565b90600052602060002090601f016020900481019282620002e9576000855562000335565b82601f106200030457805160ff191683800117855562000335565b8280016001018555821562000335579182015b828111156200033457825182559160200191906001019062000317565b5b509050620003449190620003d9565b5090565b8280546200035690620003f8565b90600052602060002090601f0160209004810192826200037a5760008555620003c6565b82601f106200039557805160ff1916838001178555620003c6565b82800160010185558215620003c6579182015b82811115620003c5578251825591602001919060010190620003a8565b5b509050620003d59190620003d9565b5090565b5b80821115620003f4576000816000905550600101620003da565b5090565b600060028204905060018216806200041157607f821691505b602082108114156200042857620004276200042e565b5b50919050565b7f4e487b7100000000000000000000000000000000000000000000000000000000600052602260045260246000fd5b611735806200046d6000396000f3fe608060405234801561001057600080fd5b50600436106100935760003560e01c80636d019c92116100665780636d019c9214610122578063aae9f2591461013e578063ad5014671461016e578063be51f4f814610178578063cf33d588146101a857610093565b806316d24710146100985780633269c74e146100b457806333d03bcc146100d0578063392f37e914610100575b600080fd5b6100b260048036038101906100ad9190610f01565b6101d8565b005b6100ce60048036038101906100c99190610e9c565b6103d1565b005b6100ea60048036038101906100e59190610e9c565b6105ff565b6040516100f791906112ac565b60405180910390f35b61010861061c565b60405161011995949392919061117b565b60405180910390f35b61013c60048036038101906101379190610f3d565b6108de565b005b61015860048036038101906101539190610ec5565b610a0b565b60405161016591906112ac565b60405180910390f35b610176610aef565b005b610192600480360381019061018d9190610f01565b610c1c565b60405161019f91906111ea565b60405180910390f35b6101c260048036038101906101bd9190610e9c565b610cdb565b6040516101cf9190611160565b60405180910390f35b600033905060006101e884610cfb565b905060008160010160008473ffffffffffffffffffffffffffffffffffffffff1673ffffffffffffffffffffffffffffffffffffffff168152602001908152602001600020541461026e576040517f08c379a00000000000000000000000000000000000000000000000000000000081526004016102659061120c565b60405180910390fd5b8261027b82600201610d43565b10156102bc576040517f08c379a00000000000000000000000000000000000000000000000000000000081526004016102b39061126c565b60405180910390fd5b828160010160008473ffffffffffffffffffffffffffffffffffffffff1673ffffffffffffffffffffffffffffffffffffffff168152602001908152602001600020819055506000816000016000858152602001908152602001600020905060018160010160008573ffffffffffffffffffffffffffffffffffffffff1673ffffffffffffffffffffffffffffffffffffffff16815260200190815260200160002060006101000a81548160ff021916908315150217905550600181600201600082825461038a919061138f565b925050819055507f8e0fdde8512c413931ab05e9ae74b54525259ce920b11c355705e510829841db84846040516103c29291906112c7565b60405180910390a15050505050565b600033905060006103e183610cfb565b905060008160010160008473ffffffffffffffffffffffffffffffffffffffff1673ffffffffffffffffffffffffffffffffffffffff168152602001908152602001600020541415610468576040517f08c379a000000000000000000000000000000000000000000000000000000000815260040161045f9061122c565b60405180910390fd5b60008160000160008360010160008673ffffffffffffffffffffffffffffffffffffffff1673ffffffffffffffffffffffffffffffffffffffff168152602001908152602001600020548152602001908152602001600020905060008260010160008573ffffffffffffffffffffffffffffffffffffffff1673ffffffffffffffffffffffffffffffffffffffff1681526020019081526020016000208190555060008160010160008573ffffffffffffffffffffffffffffffffffffffff1673ffffffffffffffffffffffffffffffffffffffff16815260200190815260200160002060006101000a81548160ff021916908315150217905550600181600201600082825461057891906113e5565b925050819055507fbeae83c5a8a13a5d2a71926ba1055d7a1d9de899e96f7244654799627236644d8260010160008573ffffffffffffffffffffffffffffffffffffffff1673ffffffffffffffffffffffffffffffffffffffff16815260200190815260200160002054846040516105f19291906112c7565b60405180910390a150505050565b600061061561060d83610cfb565b600201610d43565b9050919050565b600080600001805461062d906114b7565b80601f0160208091040260200160405190810160405280929190818152602001828054610659906114b7565b80156106a65780601f1061067b576101008083540402835291602001916106a6565b820191906000526020600020905b81548152906001019060200180831161068957829003601f168201915b505050505090806001016040518060400160405290816000820160009054906101000a900473ffffffffffffffffffffffffffffffffffffffff1673ffffffffffffffffffffffffffffffffffffffff1673ffffffffffffffffffffffffffffffffffffffff168152602001600182018054610721906114b7565b80601f016020809104026020016040519081016040528092919081815260200182805461074d906114b7565b801561079a5780601f1061076f5761010080835404028352916020019161079a565b820191906000526020600020905b81548152906001019060200180831161077d57829003601f168201915b505050505081525050908060030180546107b3906114b7565b80601f01602080910402602001604051908101604052809291908181526020018280546107df906114b7565b801561082c5780601f106108015761010080835404028352916020019161082c565b820191906000526020600020905b81548152906001019060200180831161080f57829003601f168201915b5050505050908060040160009054906101000a900467ffffffffffffffff169080600501805461085b906114b7565b80601f0160208091040260200160405190810160405280929190818152602001828054610887906114b7565b80156108d45780601f106108a9576101008083540402835291602001916108d4565b820191906000526020600020905b8154815290600101906020018083116108b757829003601f168201915b5050505050905085565b600960003373ffffffffffffffffffffffffffffffffffffffff1673ffffffffffffffffffffffffffffffffffffffff16815260200190815260200160002060009054906101000a900460ff1661096a576040517f08c379a00000000000000000000000000000000000000000000000000000000081526004016109619061128c565b60405180910390fd5b600061097533610cfb565b905061098381600201610d51565b600061099182600201610d43565b905060008260000160008381526020019081526020016000209050838160000190805190602001906109c4929190610d67565b508181600301819055507f2d06fe5eff482a0b08e70bd38f111a1a397e6952391bdc714df3eacb735b354c846040516109fd91906111ea565b60405180910390a150505050565b600080610a1784610cfb565b905060008160010160008573ffffffffffffffffffffffffffffffffffffffff1673ffffffffffffffffffffffffffffffffffffffff168152602001908152602001600020541415610a9e576040517f08c379a0000000000000000000000000000000000000000000000000000000008152600401610a959061122c565b60405180910390fd5b60008160010160008573ffffffffffffffffffffffffffffffffffffffff1673ffffffffffffffffffffffffffffffffffffffff168152602001908152602001600020549050809250505092915050565b60001515600960003373ffffffffffffffffffffffffffffffffffffffff1673ffffffffffffffffffffffffffffffffffffffff16815260200190815260200160002060009054906101000a900460ff16151514610b82576040517f08c379a0000000000000000000000000000000000000000000000000000000008152600401610b799061124c565b60405180910390fd5b600860003373ffffffffffffffffffffffffffffffffffffffff1673ffffffffffffffffffffffffffffffffffffffff168152602001908152602001600020506001600960003373ffffffffffffffffffffffffffffffffffffffff1673ffffffffffffffffffffffffffffffffffffffff16815260200190815260200160002060006101000a81548160ff021916908315150217905550565b60606000610c2984610cfb565b905060008160000160008581526020019081526020016000209050806000018054610c53906114b7565b80601f0160208091040260200160405190810160405280929190818152602001828054610c7f906114b7565b8015610ccc5780601f10610ca157610100808354040283529160200191610ccc565b820191906000526020600020905b815481529060010190602001808311610caf57829003601f168201915b50505050509250505092915050565b60096020528060005260406000206000915054906101000a900460ff1681565b6000600860008373ffffffffffffffffffffffffffffffffffffffff1673ffffffffffffffffffffffffffffffffffffffff1681526020019081526020016000209050919050565b600081600001549050919050565b6001816000016000828254019250508190555050565b828054610d73906114b7565b90600052602060002090601f016020900481019282610d955760008555610ddc565b82601f10610dae57805160ff1916838001178555610ddc565b82800160010185558215610ddc579182015b82811115610ddb578251825591602001919060010190610dc0565b5b509050610de99190610ded565b5090565b5b80821115610e06576000816000905550600101610dee565b5090565b6000610e1d610e1884611315565b6112f0565b905082815260208101848484011115610e3557600080fd5b610e40848285611475565b509392505050565b600081359050610e57816116d1565b92915050565b600082601f830112610e6e57600080fd5b8135610e7e848260208601610e0a565b91505092915050565b600081359050610e96816116e8565b92915050565b600060208284031215610eae57600080fd5b6000610ebc84828501610e48565b91505092915050565b60008060408385031215610ed857600080fd5b6000610ee685828601610e48565b9250506020610ef785828601610e48565b9150509250929050565b60008060408385031215610f1457600080fd5b6000610f2285828601610e48565b9250506020610f3385828601610e87565b9150509250929050565b600060208284031215610f4f57600080fd5b600082013567ffffffffffffffff811115610f6957600080fd5b610f7584828501610e5d565b91505092915050565b610f8781611419565b82525050565b610f9681611419565b82525050565b610fa58161142b565b82525050565b6000610fb682611346565b610fc0818561135c565b9350610fd0818560208601611484565b610fd9816115a7565b840191505092915050565b6000610fef82611351565b610ff9818561136d565b9350611009818560208601611484565b611012816115a7565b840191505092915050565b600061102882611351565b611032818561137e565b9350611042818560208601611484565b61104b816115a7565b840191505092915050565b600061106360228361137e565b915061106e826115b8565b604082019050919050565b6000611086601e8361137e565b915061109182611607565b602082019050919050565b60006110a9601c8361137e565b91506110b482611630565b602082019050919050565b60006110cc60148361137e565b91506110d782611659565b602082019050919050565b60006110ef60218361137e565b91506110fa82611682565b604082019050919050565b600060408301600083015161111d6000860182610f7e565b50602083015184820360208601526111358282610fe4565b9150508091505092915050565b61114b81611457565b82525050565b61115a81611461565b82525050565b60006020820190506111756000830184610f9c565b92915050565b600060a08201905081810360008301526111958188610fab565b905081810360208301526111a98187611105565b905081810360408301526111bd8186610fab565b90506111cc6060830185611151565b81810360808301526111de8184610fab565b90509695505050505050565b60006020820190508181036000830152611204818461101d565b905092915050565b6000602082019050818103600083015261122581611056565b9050919050565b6000602082019050818103600083015261124581611079565b9050919050565b600060208201905081810360008301526112658161109c565b9050919050565b60006020820190508181036000830152611285816110bf565b9050919050565b600060208201905081810360008301526112a5816110e2565b9050919050565b60006020820190506112c16000830184611142565b92915050565b60006040820190506112dc6000830185611142565b6112e96020830184610f8d565b9392505050565b60006112fa61130b565b905061130682826114e9565b919050565b6000604051905090565b600067ffffffffffffffff8211156113305761132f611578565b5b611339826115a7565b9050602081019050919050565b600081519050919050565b600081519050919050565b600082825260208201905092915050565b600082825260208201905092915050565b600082825260208201905092915050565b600061139a82611457565b91506113a583611457565b9250827fffffffffffffffffffffffffffffffffffffffffffffffffffffffffffffffff038211156113da576113d961151a565b5b828201905092915050565b60006113f082611457565b91506113fb83611457565b92508282101561140e5761140d61151a565b5b828203905092915050565b600061142482611437565b9050919050565b60008115159050919050565b600073ffffffffffffffffffffffffffffffffffffffff82169050919050565b6000819050919050565b600067ffffffffffffffff82169050919050565b82818337600083830152505050565b60005b838110156114a2578082015181840152602081019050611487565b838111156114b1576000848401525b50505050565b600060028204905060018216806114cf57607f821691505b602082108114156114e3576114e2611549565b5b50919050565b6114f2826115a7565b810181811067ffffffffffffffff8211171561151157611510611578565b5b80604052505050565b7f4e487b7100000000000000000000000000000000000000000000000000000000600052601160045260246000fd5b7f4e487b7100000000000000000000000000000000000000000000000000000000600052602260045260246000fd5b7f4e487b7100000000000000000000000000000000000000000000000000000000600052604160045260246000fd5b6000601f19601f8301169050919050565b7f54686973206d656d62657220697320616c726561647920696e2061205472696260008201527f6521000000000000000000000000000000000000000000000000000000000000602082015250565b7f54686973206d656d626572206973206e6f7420696e2061205472696265210000600082015250565b7f596f7520616c7265616479206861766520616e20696e7374616e636500000000600082015250565b7f547269626520646f6573206e6f74206578697374000000000000000000000000600082015250565b7f596f7520646f206e6f74206861766520612054656e616e7420696e7374616e6360008201527f6500000000000000000000000000000000000000000000000000000000000000602082015250565b6116da81611419565b81146116e557600080fd5b50565b6116f181611457565b81146116fc57600080fd5b5056fea26469706673582212209e45f03f196d4b48862da592cbd5cf1d0b15f4f72b27496d52e82a3847a3897f64736f6c63430008040033",
  "linkReferences": {},
  "deployedLinkReferences": {}
}